{
  "contractName": "CarbonCredit",
  "abi": [
    {
      "constant": true,
      "inputs": [
        {
          "name": "",
          "type": "address"
        }
      ],
      "name": "participants",
      "outputs": [
        {
          "name": "carbon_credits",
          "type": "uint256"
        },
        {
          "name": "emmisions",
          "type": "uint256"
        },
        {
          "name": "balance",
          "type": "uint256"
        },
        {
          "name": "name",
          "type": "string"
        }
      ],
      "payable": false,
      "stateMutability": "view",
      "type": "function",
      "signature": "0x09e69ede"
    },
    {
      "constant": true,
      "inputs": [],
      "name": "seller_market",
      "outputs": [
        {
          "name": "",
          "type": "address"
        }
      ],
      "payable": false,
      "stateMutability": "view",
      "type": "function",
      "signature": "0x12dae58a"
    },
    {
      "constant": true,
      "inputs": [],
      "name": "exchange_rate",
      "outputs": [
        {
          "name": "",
          "type": "uint256"
        }
      ],
      "payable": false,
      "stateMutability": "view",
      "type": "function",
      "signature": "0x171ef0b2"
    },
    {
      "constant": true,
      "inputs": [
        {
          "name": "",
          "type": "uint256"
        }
      ],
      "name": "exchange_buy",
      "outputs": [
        {
          "name": "volume",
          "type": "uint256"
        },
        {
          "name": "buyer",
          "type": "address"
        },
        {
          "name": "forced",
          "type": "uint256"
        }
      ],
      "payable": false,
      "stateMutability": "view",
      "type": "function",
      "signature": "0x5780af8d"
    },
    {
      "constant": true,
      "inputs": [],
      "name": "buyer_market",
      "outputs": [
        {
          "name": "",
          "type": "address"
        }
      ],
      "payable": false,
      "stateMutability": "view",
      "type": "function",
      "signature": "0x8e60d30b"
    },
    {
      "constant": true,
      "inputs": [],
      "name": "num_buy_orders",
      "outputs": [
        {
          "name": "",
          "type": "uint256"
        }
      ],
      "payable": false,
      "stateMutability": "view",
      "type": "function",
      "signature": "0x942849b5"
    },
    {
      "constant": true,
      "inputs": [],
      "name": "emmision_limit",
      "outputs": [
        {
          "name": "",
          "type": "uint256"
        }
      ],
      "payable": false,
      "stateMutability": "view",
      "type": "function",
      "signature": "0x9ec63ddb"
    },
    {
      "constant": true,
      "inputs": [
        {
          "name": "",
          "type": "uint256"
        }
      ],
      "name": "exchange_sell",
      "outputs": [
        {
          "name": "sell_price",
          "type": "uint256"
        },
        {
          "name": "volume",
          "type": "uint256"
        },
        {
          "name": "seller",
          "type": "address"
        }
      ],
      "payable": false,
      "stateMutability": "view",
      "type": "function",
      "signature": "0xb4caa49a"
    },
    {
      "constant": true,
      "inputs": [],
      "name": "num_sell_orders",
      "outputs": [
        {
          "name": "",
          "type": "uint256"
        }
      ],
      "payable": false,
      "stateMutability": "view",
      "type": "function",
      "signature": "0xe7332116"
    },
    {
      "constant": true,
      "inputs": [],
      "name": "admin",
      "outputs": [
        {
          "name": "",
          "type": "address"
        }
      ],
      "payable": false,
      "stateMutability": "view",
      "type": "function",
      "signature": "0xf851a440"
    },
    {
      "inputs": [],
      "payable": false,
      "stateMutability": "nonpayable",
      "type": "constructor",
      "signature": "constructor"
    },
    {
      "constant": false,
      "inputs": [
        {
          "name": "participant_address",
          "type": "address"
        },
        {
          "name": "balance",
          "type": "uint256"
        },
        {
          "name": "name",
          "type": "string"
        }
      ],
      "name": "initialize_participants",
      "outputs": [],
      "payable": false,
      "stateMutability": "nonpayable",
      "type": "function",
      "signature": "0x65da6bd3"
    },
    {
      "constant": false,
      "inputs": [
        {
          "name": "name",
          "type": "string"
        },
        {
          "name": "emmisions",
          "type": "uint256"
        },
        {
          "name": "balance_change",
          "type": "uint256"
        }
      ],
      "name": "update_participant",
      "outputs": [],
      "payable": false,
      "stateMutability": "nonpayable",
      "type": "function",
      "signature": "0xb69d3f01"
    },
    {
      "constant": false,
      "inputs": [
        {
          "name": "seller",
          "type": "address"
        },
        {
          "name": "volume",
          "type": "uint256"
        },
        {
          "name": "sell_price",
          "type": "uint256"
        }
      ],
      "name": "make_sell_order",
      "outputs": [],
      "payable": false,
      "stateMutability": "nonpayable",
      "type": "function",
      "signature": "0x1c379acf"
    },
    {
      "constant": false,
      "inputs": [
        {
          "name": "buyer",
          "type": "address"
        },
        {
          "name": "volume",
          "type": "uint256"
        }
      ],
      "name": "make_buy_order",
      "outputs": [],
      "payable": false,
      "stateMutability": "nonpayable",
      "type": "function",
      "signature": "0x8e11125f"
    },
    {
      "constant": false,
      "inputs": [
        {
          "name": "participant_address",
          "type": "address"
        }
      ],
      "name": "issue_credits",
      "outputs": [],
      "payable": false,
      "stateMutability": "nonpayable",
      "type": "function",
      "signature": "0x5e690c3e"
    },
    {
      "constant": false,
      "inputs": [
        {
          "name": "participant_address",
          "type": "address"
        },
        {
          "name": "volume",
          "type": "uint256"
        }
      ],
      "name": "force_to_buy",
      "outputs": [],
      "payable": false,
      "stateMutability": "nonpayable",
      "type": "function",
      "signature": "0x06090ee4"
    },
    {
      "constant": false,
      "inputs": [],
      "name": "match_order",
      "outputs": [],
      "payable": false,
      "stateMutability": "nonpayable",
      "type": "function",
      "signature": "0x143e69e2"
    }
  ],
  "bytecode": "0x60806040526000600755600060085534801561001a57600080fd5b5060028054600160a060020a0319163317905560646000556005600155610fdd806100466000396000f3fe6080604052600436106100f05763ffffffff7c010000000000000000000000000000000000000000000000000000000060003504166306090ee481146100f557806309e69ede1461013057806312dae58a146101f0578063143e69e214610221578063171ef0b2146102365780631c379acf1461025d5780635780af8d1461029c5780635e690c3e146102ec57806365da6bd31461031f5780638e11125f146103e75780638e60d30b14610420578063942849b5146104355780639ec63ddb1461044a578063b4caa49a1461045f578063b69d3f01146104b0578063e733211614610568578063f851a4401461057d575b600080fd5b34801561010157600080fd5b5061012e6004803603604081101561011857600080fd5b50600160a060020a038135169060200135610592565b005b34801561013c57600080fd5b506101636004803603602081101561015357600080fd5b5035600160a060020a03166105ec565b6040518085815260200184815260200183815260200180602001828103825283818151815260200191508051906020019080838360005b838110156101b257818101518382015260200161019a565b50505050905090810190601f1680156101df5780820380516001836020036101000a031916815260200191505b509550505050505060405180910390f35b3480156101fc57600080fd5b5061020561069a565b60408051600160a060020a039092168252519081900360200190f35b34801561022d57600080fd5b5061012e6106a9565b34801561024257600080fd5b5061024b610959565b60408051918252519081900360200190f35b34801561026957600080fd5b5061012e6004803603606081101561028057600080fd5b50600160a060020a03813516906020810135906040013561095f565b3480156102a857600080fd5b506102c6600480360360208110156102bf57600080fd5b5035610a04565b60408051938452600160a060020a03909216602084015282820152519081900360600190f35b3480156102f857600080fd5b5061012e6004803603602081101561030f57600080fd5b5035600160a060020a0316610a2e565b34801561032b57600080fd5b5061012e6004803603606081101561034257600080fd5b600160a060020a038235169160208101359181019060608101604082013564010000000081111561037257600080fd5b82018360208201111561038457600080fd5b803590602001918460018302840111640100000000831117156103a657600080fd5b91908080601f016020809104026020016040519081016040528093929190818152602001838380828437600092019190915250929550610b1f945050505050565b3480156103f357600080fd5b5061012e6004803603604081101561040a57600080fd5b50600160a060020a038135169060200135610c6b565b34801561042c57600080fd5b50610205610d32565b34801561044157600080fd5b5061024b610d41565b34801561045657600080fd5b5061024b610d47565b34801561046b57600080fd5b506104896004803603602081101561048257600080fd5b5035610d4d565b604080519384526020840192909252600160a060020a031682820152519081900360600190f35b3480156104bc57600080fd5b5061012e600480360360608110156104d357600080fd5b8101906020810181356401000000008111156104ee57600080fd5b82018360208201111561050057600080fd5b8035906020019184600183028401116401000000008311171561052257600080fd5b91908080601f0160208091040260200160405190810160405280939291908181526020018383808284376000920191909152509295505082359350505060200135610d77565b34801561057457600080fd5b5061024b610f01565b34801561058957600080fd5b50610205610f07565b600254600160a060020a031633146105a957600080fd5b60028054600160a060020a0390811660009081526003602052604090208054840190559054604b916105dd9116838361095f565b6105e78383610c6b565b505050565b6003602081815260009283526040928390208054600180830154600280850154968501805489519481161561010002600019011691909104601f810187900487028401870190985287835292969095949192918301828280156106905780601f1061066557610100808354040283529160200191610690565b820191906000526020600020905b81548152906001019060200180831161067357829003601f168201915b5050505050905084565b600a54600160a060020a031681565b600254600160a060020a031633146106c057600080fd5b60005b60075481101561095657600081815260066020526040812060018101546009805473ffffffffffffffffffffffffffffffffffffffff1916600160a060020a0390921691909117905580546004190190555b6000828152600660205260408120541180610731575060085481105b1561094d5760008181526005602081815260408084206002810154600a805473ffffffffffffffffffffffffffffffffffffffff1916600160a060020a03909216919091179055868552600683529084205493859052919052600101541061086d5760008281526006602052604090206002015415156107db57600082815260066020908152604080832054600954600160a060020a031684526003909252909120805490910190555b60008281526006602081815260408084208054868652600584528286208054600954600160a060020a03908116895260038752858920600290810180549390950290920390935583548254600a805486168b52878b2090930180549190920201905583549054909216875292862080549190910390558054600190920180549290920390915585845291905255610945565b60008281526006602052604090206002015415156108b857600081815260056020908152604080832060010154600954600160a060020a031684526003909252909120805490910190555b60008181526005602081815260408084206001810180548254600954600160a060020a03908116895260038752858920600290810180549390940290920390925582549354600a805484168a52868a209092018054919095020190935581549254168652828620805492909203909155805487865260068452918520805492909203909155848452919052555b600101610715565b506001016106c3565b50565b60005481565b33600160a060020a03841614806109805750600254600160a060020a031633145b151561098b57600080fd5b604080516060810182529182526020808301938452600160a060020a0394851683830190815260088054600090815260059093529290912092518355925160018084019190915592516002909201805473ffffffffffffffffffffffffffffffffffffffff191692909416919091179092558154019055565b6006602052600090815260409020805460018201546002909201549091600160a060020a03169083565b600254600160a060020a03163314610a4557600080fd5b60018054600160a060020a0383166000908152600360205260409020909101541015610aa357600160a060020a0381166000908152600360205260408120600180820180549084905592549054600202929092039091029055610956565b600160a060020a038116600090815260036020526040902060019081015490541015610956576000805460018054600160a060020a03851684526003602052604090932001549190910302610af88282610592565b506000805460018054600160a060020a038516845260036020526040842092028255015550565b600254600160a060020a03163314610b9857604080517f08c379a000000000000000000000000000000000000000000000000000000000815260206004820152601360248201527f4f6e6c792061646d696e2063616e206164642e00000000000000000000000000604482015290519081900360640190fd5b600160a060020a038316600090815260036020818152604083206001810193909355600283018590556101f483558351610bd9939092019190840190610f16565b50826004826040518082805190602001908083835b60208310610c0d5780518252601f199092019160209182019101610bee565b51815160209384036101000a60001901801990921691161790529201948552506040519384900301909220805473ffffffffffffffffffffffffffffffffffffffff1916600160a060020a0394909416939093179092555050505050565b33600160a060020a0383161480610c8c5750600254600160a060020a031633145b1515610c9757600080fd5b600254600090600160a060020a0316331415610cb557506001610cb9565b5060005b60408051606081018252928352600160a060020a039384166020808501918252848301938452600780546000908152600690925292902093518455516001808501805473ffffffffffffffffffffffffffffffffffffffff19169290961691909117909455905160029092019190915580549091019055565b600954600160a060020a031681565b60075481565b60015481565b600560205260009081526040902080546001820154600290920154909190600160a060020a031683565b600254600160a060020a03163314610df057604080517f08c379a000000000000000000000000000000000000000000000000000000000815260206004820152601360248201527f4f6e6c792061646d696e2063616e206164642e00000000000000000000000000604482015290519081900360640190fd5b81600360006004866040518082805190602001908083835b60208310610e275780518252601f199092019160209182019101610e08565b51815160209384036101000a60001901801990921691161790529201948552506040805194859003820190942054600160a060020a031685528481019590955250509081016000908120600101939093555185518493600393909260049289928291908401908083835b60208310610eb05780518252601f199092019160209182019101610e91565b51815160209384036101000a60001901801990921691161790529201948552506040805194859003820190942054600160a060020a0316855284019490945250016000206002019190915550505050565b60085481565b600254600160a060020a031681565b828054600181600116156101000203166002900490600052602060002090601f016020900481019282601f10610f5757805160ff1916838001178555610f84565b82800160010185558215610f84579182015b82811115610f84578251825591602001919060010190610f69565b50610f90929150610f94565b5090565b610fae91905b80821115610f905760008155600101610f9a565b9056fea165627a7a72305820a321badeadc274f707ec42a70b11b5417ca132d279243ebc3a2f3096e2371d6c0029",
  "source": "// SPDX-License-Identifier: GPL-3.0\npragma solidity ^0.5.0;\n\n/// @title Voting with delegation.\ncontract CarbonCredit {\n\n   // This declares a new type which represents\n   // participants of an emmission market.\n\n\n    uint public exchange_rate;\n    uint public emmision_limit;\n\n    struct Participant {\n        uint carbon_credits;\n        uint emmisions;\n        uint balance;\n        string name;\n    }\n\n    struct Sell_order {\n        uint sell_price;\n        uint volume;\n        address seller;\n    }\n\n    struct Buy_order {\n        uint volume;\n        address buyer;\n        uint forced;\n    }\n\n  //The admin is responsible for issuing Carbon Credits, Rewarding low\n  // emmisions, Punishing high emmisions and Managing the exchange.\n\n  address public admin;\n\n\n\n   // This declares a state variable that\n   // stores a `participant` struct for each possible address.\n    mapping(address => Participant) public participants;\n    mapping(string => address) private Names;\n\n    // A dynamically-sized array of 'buy' and 'sell' limit orders.\n    //Sell_order[] public exchange_sell;\n    //Buy_order[] public exchange_buy;\n    mapping(uint => Sell_order) public exchange_sell;\n    mapping(uint => Buy_order) public exchange_buy;\n\n    uint public num_buy_orders = 0;\n    uint public num_sell_orders = 0;\n\n    constructor() public {\n        admin = msg.sender;\n        exchange_rate = 100;\n        emmision_limit = 5;\n    }\n\n    // To be called to initialize a participant and assign emmisions and balance\n\n    function initialize_participants(address participant_address, uint balance, string memory name) public {\n        require(\n            msg.sender == admin,\n            \"Only admin can add.\"\n        );\n        participants[participant_address].emmisions = 0;\n        participants[participant_address].balance = balance;\n        participants[participant_address].carbon_credits = 500;\n        participants[participant_address].name = name;\n        Names[name] = participant_address;\n    }\n\n\n    // End of year updates to emmisions of a participant\n    function update_participant(string memory name, uint emmisions, uint balance_change) public{\n        require(\n            msg.sender == admin,\n            \"Only admin can add.\"\n        );\n\n        participants[Names[name]].emmisions = emmisions;\n        participants[Names[name]].balance = balance_change;\n    }\n\n    function make_sell_order(address seller, uint volume, uint sell_price) public{\n\n            require(\n                msg.sender == seller || msg.sender == admin\n            );\n            exchange_sell[num_sell_orders] = Sell_order({\n                sell_price: sell_price,\n                volume: volume,\n                seller: seller\n             });\n            num_sell_orders += 1;\n\n            // exchange_sell.push(Sell_order({\n            //     sell_price: sell_price,\n            //     volume: volume,\n            //     seller: seller\n            // })\n            //);\n    }\n\n    function make_buy_order(address buyer, uint volume) public{\n\n        require(\n                msg.sender == buyer || msg.sender == admin\n            );\n        uint forced;\n        if (msg.sender == admin){\n          forced = 1;\n        }\n        else {\n          forced = 0;\n        }\n        exchange_buy[num_buy_orders] = Buy_order({\n            buyer: buyer,\n            volume: volume,\n            forced: forced\n          });\n\n          num_buy_orders += 1;\n\n        // exchange_buy.push(Buy_order({\n        //     buyer: buyer,\n        //     volume: volume\n        //   })\n        // );\n    }\n\n    // To be called externally and periodically at the end of the year\n\n  function issue_credits(address participant_address) public{\n\n    require(\n      msg.sender == admin\n    );\n    if (participants[participant_address].emmisions < emmision_limit){\n      uint emmisions = participants[participant_address].emmisions;\n      participants[participant_address].emmisions = 0;\n\n      // Mint new coins\n      participants[participant_address].carbon_credits = (2 * emmision_limit - emmisions) * exchange_rate;\n    }\n    else if (emmision_limit < participants[participant_address].emmisions){\n      uint volume;\n      volume = (participants[participant_address].emmisions - emmision_limit) * exchange_rate;\n      force_to_buy(participant_address, volume);\n      participants[participant_address].carbon_credits = emmision_limit * exchange_rate;\n      participants[participant_address].emmisions = 0;\n    }\n  }\n\n  function force_to_buy(address participant_address, uint volume) public{\n\n    require(\n      msg.sender == admin\n    );\n    participants[admin].carbon_credits += volume;\n    uint sell_price = 75;\n    make_sell_order(admin, volume, sell_price);\n\n    make_buy_order(participant_address, volume);\n  }\n\n  //Order Matching\n  address public buyer_market;\n  address public seller_market;\n\n  function match_order() public{\n\n      require(\n      msg.sender == admin\n    );\n\n\n    // Sort sell array: Sell -> Lowest price first if volume > 0\n\n    for (uint i = 0; i < num_buy_orders; i++)  {\n\n        buyer_market = exchange_buy[i].buyer;\n        exchange_buy[i].volume -= 5;\n        uint j = 0;\n\n        while (exchange_buy[i].volume > 0 || j < num_sell_orders){\n            seller_market = exchange_sell[j].seller;\n            if (exchange_sell[j].volume >= exchange_buy[i].volume){\n                if (exchange_buy[i].forced == 0){\n                  participants[buyer_market].carbon_credits += exchange_buy[i].volume;\n                }\n                participants[buyer_market].balance -= exchange_sell[j].sell_price * exchange_buy[i].volume;\n                participants[seller_market].balance += exchange_sell[j].sell_price * exchange_buy[i].volume;\n                participants[seller_market].carbon_credits -= exchange_buy[i].volume;\n                exchange_sell[j].volume -= exchange_buy[i].volume;\n                exchange_buy[i].volume = 0;\n            }\n\n            else {\n                if (exchange_buy[i].forced == 0){\n                  participants[buyer_market].carbon_credits += exchange_sell[j].volume;\n                }\n                participants[buyer_market].balance -= exchange_sell[j].sell_price * exchange_sell[j].volume;\n                participants[seller_market].balance += exchange_sell[j].sell_price * exchange_sell[j].volume;\n                participants[seller_market].carbon_credits -= exchange_sell[j].volume;\n                exchange_buy[i].volume -= exchange_sell[j].volume;\n                exchange_sell[j].volume = 0;\n            }\n\n            j += 1;\n\n            }\n        }\n\n  }\n\n\n}\n",
  "sourcePath": "/Users/lispectacular/Desktop/eth-todo-list/contracts/CarbonCredit.sol",
  "compiler": {
    "name": "solc",
    "version": "0.5.0+commit.1d4f565a.Emscripten.clang"
  },
  "schemaVersion": "3.0.1",
  "updatedAt": "2020-12-16T11:13:39.522Z",
  "devdoc": {
    "methods": {},
    "title": "Voting with delegation."
  },
  "userdoc": {
    "methods": {}
  }
}